{
  "contractName": "SmartFarmContract",
  "abi": [
    {
      "constant": true,
      "inputs": [],
      "name": "counter",
      "outputs": [
        {
          "internalType": "uint256",
          "name": "",
          "type": "uint256"
        }
      ],
      "payable": false,
      "stateMutability": "view",
      "type": "function"
    }
  ],
  "bytecode": "0x608060405260008055348015601357600080fd5b506084806100226000396000f3fe6080604052348015600f57600080fd5b506004361060285760003560e01c806361bc221a14602d575b600080fd5b60336049565b6040518082815260200191505060405180910390f35b6000548156fea265627a7a72315820215566d16c2bb50bf233540113d95ca4aeca4116460124a9a08c4ba0f67b59c864736f6c63430005100032",
  "source": "pragma solidity >=0.4.22 <0.9.0;\ncontract SmartFarmContract {\n    uint public counter=0;\n}",
  "sourcePath": "/Users/maaeyeng/project/fullinnovation/pisapp/TSFMFI/blockchain/contracts/contracts/SmartFarmContract.sol",
  "compiler": {
    "name": "solc",
    "version": "0.5.16+commit.9c3226ce.Emscripten.clang"
  },
  "schemaVersion": "3.4.8",
  "updatedAt": "2022-07-24T07:41:52.354Z",
  "networkType": "ethereum",
  "devdoc": {
    "methods": {}
  },
  "userdoc": {
    "methods": {}
  }
}